{
  "_format": "hh-sol-artifact-1",
  "contractName": "SimpleStorage",
  "sourceName": "contracts/SimpleStorage.sol",
  "abi": [
    {
      "anonymous": false,
      "inputs": [
        {
          "indexed": true,
          "internalType": "uint256",
          "name": "newValue",
          "type": "uint256"
        },
        {
          "indexed": true,
          "internalType": "address",
          "name": "setter",
          "type": "address"
        }
      ],
      "name": "ValueStored",
      "type": "event"
    },
    {
      "inputs": [],
      "name": "retrieve",
      "outputs": [
        {
          "internalType": "uint256",
          "name": "",
          "type": "uint256"
        }
      ],
      "stateMutability": "view",
      "type": "function"
    },
    {
      "inputs": [
        {
          "internalType": "uint256",
          "name": "data",
          "type": "uint256"
        }
      ],
      "name": "store",
      "outputs": [],
      "stateMutability": "nonpayable",
      "type": "function"
    },
    {
      "inputs": [],
      "name": "version",
      "outputs": [
        {
          "internalType": "string",
          "name": "",
          "type": "string"
        }
      ],
      "stateMutability": "pure",
      "type": "function"
    }
  ],
  "bytecode": "0x608060405234801561001057600080fd5b50610168806100206000396000f3fe608060405234801561001057600080fd5b50600436106100415760003560e01c80632e64cec11461004657806354fd4d501461005c5780636057361d14610083575b600080fd5b6000546040519081526020015b60405180910390f35b60408051808201825260058152640312e302e360dc1b6020820152905161005391906100cb565b610096610091366004610119565b610098565b005b6000818155604051339183917f6780c206d7f9b84380d83af1f788410ca704e0950ff2f78b1ada794f5fd9b1929190a350565b600060208083528351808285015260005b818110156100f8578581018301518582016040015282016100dc565b506000604082860101526040601f19601f8301168501019250505092915050565b60006020828403121561012b57600080fd5b503591905056fea2646970667358221220db8ae36f6d179f46126f747afa55d0466ae829712672a15c6b23ad2913d02e0e64736f6c63430008130033",
  "linkReferences": {},
  "deployedLinkReferences": {}
}