{
  "_format": "hh-sol-artifact-1",
  "contractName": "Counter",
  "sourceName": "contracts/Counter.sol",
  "abi": [
    {
      "inputs": [],
      "stateMutability": "nonpayable",
      "type": "constructor"
    },
    {
      "anonymous": false,
      "inputs": [
        {
          "indexed": true,
          "internalType": "uint256",
          "name": "newCount",
          "type": "uint256"
        },
        {
          "indexed": true,
          "internalType": "address",
          "name": "caller",
          "type": "address"
        }
      ],
      "name": "Decremented",
      "type": "event"
    },
    {
      "anonymous": false,
      "inputs": [
        {
          "indexed": true,
          "internalType": "uint256",
          "name": "newCount",
          "type": "uint256"
        },
        {
          "indexed": true,
          "internalType": "address",
          "name": "caller",
          "type": "address"
        }
      ],
      "name": "Incremented",
      "type": "event"
    },
    {
      "anonymous": false,
      "inputs": [
        {
          "indexed": true,
          "internalType": "address",
          "name": "caller",
          "type": "address"
        }
      ],
      "name": "Reset",
      "type": "event"
    },
    {
      "inputs": [],
      "name": "decrement",
      "outputs": [],
      "stateMutability": "nonpayable",
      "type": "function"
    },
    {
      "inputs": [],
      "name": "getCount",
      "outputs": [
        {
          "internalType": "uint256",
          "name": "",
          "type": "uint256"
        }
      ],
      "stateMutability": "view",
      "type": "function"
    },
    {
      "inputs": [],
      "name": "increment",
      "outputs": [],
      "stateMutability": "nonpayable",
      "type": "function"
    },
    {
      "inputs": [],
      "name": "owner",
      "outputs": [
        {
          "internalType": "address",
          "name": "",
          "type": "address"
        }
      ],
      "stateMutability": "view",
      "type": "function"
    },
    {
      "inputs": [],
      "name": "reset",
      "outputs": [],
      "stateMutability": "nonpayable",
      "type": "function"
    },
    {
      "inputs": [
        {
          "internalType": "address",
          "name": "newOwner",
          "type": "address"
        }
      ],
      "name": "transferOwnership",
      "outputs": [],
      "stateMutability": "nonpayable",
      "type": "function"
    }
  ],
  "bytecode": "0x608060405234801561001057600080fd5b50600180546001600160a01b0319163317905560008055610388806100366000396000f3fe608060405234801561001057600080fd5b50600436106100625760003560e01c80632baeceb7146100675780638da5cb5b14610071578063a87d942c146100a1578063d09de08a146100b2578063d826f88f146100ba578063f2fde38b146100c2575b600080fd5b61006f6100d5565b005b600154610084906001600160a01b031681565b6040516001600160a01b0390911681526020015b60405180910390f35b600054604051908152602001610098565b61006f61016d565b61006f6101af565b61006f6100d03660046102dc565b610228565b600080541161012b5760405162461bcd60e51b815260206004820152601b60248201527f43616e6e6f742064656372656d656e742062656c6f77207a65726f000000000060448201526064015b60405180910390fd5b60008054908061013a83610322565b90915550506000805460405133927f997a19f6ef1f7d292cfd00d9bbec5b42ac91006844edc66c6bcf72e0412512ec91a3565b60008054908061017c83610339565b90915550506000805460405133927f6312957b833157dbcce860c9538737febb9491fde39563488a9c296f930376ed91a3565b6001546001600160a01b031633146101f95760405162461bcd60e51b815260206004820152600d60248201526c2737ba103a34329037bbb732b960991b6044820152606401610122565b600080805560405133917f162f46783fcc741c289a7af5bd16474ace09d7e8a9d5fe1ac0d37b12afc0ccac91a2565b6001546001600160a01b031633146102725760405162461bcd60e51b815260206004820152600d60248201526c2737ba103a34329037bbb732b960991b6044820152606401610122565b6001600160a01b0381166102ba5760405162461bcd60e51b815260206004820152600f60248201526e496e76616c6964206164647265737360881b6044820152606401610122565b600180546001600160a01b0319166001600160a01b0392909216919091179055565b6000602082840312156102ee57600080fd5b81356001600160a01b038116811461030557600080fd5b9392505050565b634e487b7160e01b600052601160045260246000fd5b6000816103315761033161030c565b506000190190565b60006001820161034b5761034b61030c565b506001019056fea26469706673582212208a082c6621e7d0777cf58148504c0e324bf2cfa03d2e8c45374aca3560a2419064736f6c63430008130033",
  "linkReferences": {},
  "deployedLinkReferences": {}
}