{
  "_format": "hh-sol-artifact-1",
  "contractName": "MultiSwapDebug",
  "sourceName": "contracts/MultiSwapDebug.sol",
  "abi": [
    {
      "anonymous": false,
      "inputs": [
        {
          "indexed": false,
          "internalType": "string",
          "name": "message",
          "type": "string"
        },
        {
          "indexed": false,
          "internalType": "address",
          "name": "addr",
          "type": "address"
        }
      ],
      "name": "DebugAddress",
      "type": "event"
    },
    {
      "anonymous": false,
      "inputs": [
        {
          "indexed": false,
          "internalType": "string",
          "name": "message",
          "type": "string"
        },
        {
          "indexed": false,
          "internalType": "bool",
          "name": "value",
          "type": "bool"
        }
      ],
      "name": "DebugBool",
      "type": "event"
    },
    {
      "anonymous": false,
      "inputs": [
        {
          "indexed": false,
          "internalType": "string",
          "name": "message",
          "type": "string"
        },
        {
          "indexed": false,
          "internalType": "uint256",
          "name": "value1",
          "type": "uint256"
        },
        {
          "indexed": false,
          "internalType": "uint256",
          "name": "value2",
          "type": "uint256"
        }
      ],
      "name": "DebugLog",
      "type": "event"
    },
    {
      "anonymous": false,
      "inputs": [
        {
          "indexed": false,
          "internalType": "string",
          "name": "function_name",
          "type": "string"
        },
        {
          "indexed": false,
          "internalType": "string",
          "name": "error_reason",
          "type": "string"
        },
        {
          "indexed": false,
          "internalType": "uint256",
          "name": "step",
          "type": "uint256"
        }
      ],
      "name": "ErrorOccurred",
      "type": "event"
    },
    {
      "anonymous": false,
      "inputs": [
        {
          "indexed": false,
          "internalType": "string",
          "name": "step",
          "type": "string"
        },
        {
          "indexed": false,
          "internalType": "bool",
          "name": "success",
          "type": "bool"
        },
        {
          "indexed": false,
          "internalType": "uint256",
          "name": "amount",
          "type": "uint256"
        }
      ],
      "name": "StepCompleted",
      "type": "event"
    },
    {
      "anonymous": false,
      "inputs": [
        {
          "indexed": false,
          "internalType": "string",
          "name": "check",
          "type": "string"
        },
        {
          "indexed": false,
          "internalType": "bool",
          "name": "passed",
          "type": "bool"
        },
        {
          "indexed": false,
          "internalType": "string",
          "name": "details",
          "type": "string"
        }
      ],
      "name": "ValidationResult",
      "type": "event"
    },
    {
      "inputs": [],
      "name": "HFUN",
      "outputs": [
        {
          "internalType": "address",
          "name": "",
          "type": "address"
        }
      ],
      "stateMutability": "view",
      "type": "function"
    },
    {
      "inputs": [],
      "name": "HYPERSWAP_V2_ROUTER",
      "outputs": [
        {
          "internalType": "address",
          "name": "",
          "type": "address"
        }
      ],
      "stateMutability": "view",
      "type": "function"
    },
    {
      "inputs": [],
      "name": "HYPERSWAP_V3_ROUTER01",
      "outputs": [
        {
          "internalType": "address",
          "name": "",
          "type": "address"
        }
      ],
      "stateMutability": "view",
      "type": "function"
    },
    {
      "inputs": [],
      "name": "HYPERSWAP_V3_ROUTER02",
      "outputs": [
        {
          "internalType": "address",
          "name": "",
          "type": "address"
        }
      ],
      "stateMutability": "view",
      "type": "function"
    },
    {
      "inputs": [],
      "name": "PURR",
      "outputs": [
        {
          "internalType": "address",
          "name": "",
          "type": "address"
        }
      ],
      "stateMutability": "view",
      "type": "function"
    },
    {
      "inputs": [],
      "name": "WETH",
      "outputs": [
        {
          "internalType": "address",
          "name": "",
          "type": "address"
        }
      ],
      "stateMutability": "view",
      "type": "function"
    },
    {
      "inputs": [
        {
          "internalType": "address",
          "name": "user",
          "type": "address"
        }
      ],
      "name": "debugBalances",
      "outputs": [
        {
          "internalType": "uint256",
          "name": "userWeth",
          "type": "uint256"
        },
        {
          "internalType": "uint256",
          "name": "userPurr",
          "type": "uint256"
        },
        {
          "internalType": "uint256",
          "name": "userHfun",
          "type": "uint256"
        },
        {
          "internalType": "uint256",
          "name": "contractWeth",
          "type": "uint256"
        },
        {
          "internalType": "uint256",
          "name": "contractPurr",
          "type": "uint256"
        },
        {
          "internalType": "uint256",
          "name": "contractHfun",
          "type": "uint256"
        },
        {
          "internalType": "uint256",
          "name": "wethAllowance",
          "type": "uint256"
        }
      ],
      "stateMutability": "view",
      "type": "function"
    },
    {
      "inputs": [
        {
          "internalType": "uint256",
          "name": "wethAmount",
          "type": "uint256"
        },
        {
          "internalType": "uint256",
          "name": "minPurrOutput",
          "type": "uint256"
        },
        {
          "internalType": "uint256",
          "name": "minHfunOutput",
          "type": "uint256"
        },
        {
          "internalType": "uint256",
          "name": "slippageBps",
          "type": "uint256"
        },
        {
          "internalType": "bool",
          "name": "useV3ForFirst",
          "type": "bool"
        }
      ],
      "name": "executeWethToPurrToHfunDebug",
      "outputs": [
        {
          "internalType": "uint256",
          "name": "finalHfunAmount",
          "type": "uint256"
        }
      ],
      "stateMutability": "nonpayable",
      "type": "function"
    },
    {
      "inputs": [
        {
          "internalType": "address",
          "name": "token",
          "type": "address"
        },
        {
          "internalType": "uint256",
          "name": "amount",
          "type": "uint256"
        }
      ],
      "name": "recoverToken",
      "outputs": [],
      "stateMutability": "nonpayable",
      "type": "function"
    }
  ],
  "bytecode": "0x608060405234801561001057600080fd5b5061273b806100206000396000f3fe608060405234801561001057600080fd5b50600436106100935760003560e01c8063b29a814011610066578063b29a814014610127578063c7e6b8e31461013c578063da1a34e414610157578063dbaba55c14610172578063dd8c1abe146101ba57600080fd5b8063302973ec1461009857806353e7bee0146100d057806366329622146100eb578063ad5c46481461010c575b600080fd5b6100b373c003d79b8a489703b1753711e3ae9ffdfc8d1a8281565b6040516001600160a01b0390911681526020015b60405180910390f35b6100b37385aa63eb2ab9baaa74ead7e7f82a571d7490185381565b6100fe6100f93660046121d0565b6101d5565b6040519081526020016100c7565b6100b373adcb2f358eae6492f61a5f87eb8893d09391d16081565b61013a610135366004612239565b610c94565b005b6100b373d81f56576b1ff2f3ef18e9cc71adaa42516fd99081565b6100b37351c5958ffb3e326f8d7aa945948159f1ff27e14a81565b610185610180366004612263565b610d44565b604080519788526020880196909652948601939093526060850191909152608084015260a083015260c082015260e0016100c7565b6100b37337adb2550b965851593832a6444763eeb3e1d1ec81565b604080516060808252601d908201527f3d3d3d204d756c746953776170204465627567205374617274203d3d3d0000006080820152602081018790529081018390526000906000805160206126868339815191529060a00160405180910390a16000805160206126c6833981519152826040516102849190604080825260159082015274055736520563320666f72206669727374207377617605c1b6060820152901515602082015260800190565b60405180910390a16040805160608082526016908201527529ba32b810181d1028393296bb30b634b230ba34b7b760511b60808201526000602082018190528183015290516000805160206126868339815191529181900360a00190a16102ec8686866110c1565b6040805160608082526010908201526f24b7383aba103b30b634b230ba34b7b760811b60808201526001602082015260008183015290516000805160206126e68339815191529181900360a00190a16040805160608082526023908201527f5374657020313a2042616c616e636520616e6420616c6c6f77616e636520636860808201526265636b60e81b60a08201526000602082018190528183015290516000805160206126868339815191529181900360c00190a16103ad3387611225565b604080516060808252600f908201526e2ba2aa24103b30b634b230ba34b7b760891b6080820152600160208201529081018790526000805160206126e68339815191529060a00160405180910390a16040805160608082526015908201527429ba32b810191d102ba2aa24103a3930b739b332b960591b60808201526020810188905260008183015290516000805160206126868339815191529181900360a00190a16040516323b872dd60e01b81523360048201523060248201526044810187905260009073adcb2f358eae6492f61a5f87eb8893d09391d160906323b872dd906064016020604051808303816000875af11580156104b1573d6000803e3d6000fd5b505050506040513d601f19601f820116820180604052508101906104d59190612285565b90506000805160206126c683398151915281604051610526919060408082526015908201527457455448207472616e73666572207375636365737360581b6060820152901515602082015260800190565b60405180910390a1806105775760405162461bcd60e51b815260206004820152601460248201527315d15512081d1c985b9cd9995c8819985a5b195960621b60448201526064015b60405180910390fd5b604080516060808252600d908201526c2ba2aa24103a3930b739b332b960991b6080820152600160208201529081018890526000805160206126e68339815191529060a00160405180910390a1604080516060808252601d908201527f5374657020333a204669727374207377617020574554482d3e505552520000006080820152602081018990529081018790526000805160206126868339815191529060a00160405180910390a16000805160206126c683398151915283604051610678919060408082526017908201527f5573696e6720563320666f7220666972737420737761700000000000000000006060820152901515602082015260800190565b60405180910390a160008315610719576106bf73adcb2f358eae6492f61a5f87eb8893d09391d16073c003d79b8a489703b1753711e3ae9ffdfc8d1a828a8a6101f46114e2565b604080516060808252601290820152712b199039bbb0b8102ba2aa24169f282aa92960711b6080820152600160208201529081018290529091506000805160206126e68339815191529060a00160405180910390a16107a3565b61074d73adcb2f358eae6492f61a5f87eb8893d09391d16073c003d79b8a489703b1753711e3ae9ffdfc8d1a828a8a611b0f565b604080516060808252601290820152712b191039bbb0b8102ba2aa24169f282aa92960711b6080820152600160208201529081018290529091506000805160206126e68339815191529060a00160405180910390a15b604080516060808252601d908201527f5374657020343a20466972737420737761702076616c69646174696f6e0000006080820152602081018390529081018890526000805160206126868339815191529060a00160405180910390a18681101561084657600080516020612666833981519152600060405161082691906122a2565b60405180910390a160405162461bcd60e51b815260040161056e9061231a565b60008051602061266683398151915260016040516108649190612358565b60405180910390a1604080516060808252601e908201527f5374657020353a205365636f6e64207377617020505552522d3e4846554e00006080820152602081018390529081018790526000805160206126868339815191529060a00160405180910390a1604080518181526018818301527f5573696e6720563220666f72207365636f6e642073776170000000000000000060608201526001602082015290516000805160206126c68339815191529181900360800190a161095173c003d79b8a489703b1753711e3ae9ffdfc8d1a827337adb2550b965851593832a6444763eeb3e1d1ec8389611b0f565b604080516060808252601290820152712b191039bbb0b810282aa929169f24232aa760711b6080820152600160208201529081018290529093506000805160206126e68339815191529060a00160405180910390a16040805160608082526018908201527f5374657020363a2046696e616c2076616c69646174696f6e00000000000000006080820152602081018590529081018790526000805160206126868339815191529060a00160405180910390a185831015610a49576000805160206126668339815191526000604051610a2991906123c5565b60405180910390a160405162461bcd60e51b815260040161056e90612430565b6000805160206126668339815191526001604051610a679190612468565b60405180910390a16040805160608082526015908201527429ba32b8101b9d1024232aa7103a3930b739b332b960591b60808201526020810185905260008183015290516000805160206126868339815191529181900360a00190a160405163a9059cbb60e01b8152336004820152602481018490526000907337adb2550b965851593832a6444763eeb3e1d1ec9063a9059cbb906044016020604051808303816000875af1158015610b1e573d6000803e3d6000fd5b505050506040513d601f19601f82011682018060405250810190610b429190612285565b90506000805160206126c683398151915281604051610b9391906040808252601590820152744846554e207472616e73666572207375636365737360581b6060820152901515602082015260800190565b60405180910390a180610bdf5760405162461bcd60e51b815260206004820152601460248201527312119553881d1c985b9cd9995c8819985a5b195960621b604482015260640161056e565b604080516060808252600d908201526c24232aa7103a3930b739b332b960991b6080820152600160208201529081018590526000805160206126e68339815191529060a00160405180910390a160408051606080825260209082018190527f3d3d3d204d756c74695377617020446562756720436f6d706c657465203d3d3d6080830152810186905260008183015290516000805160206126868339815191529181900360a00190a150505095945050505050565b333214610cce5760405162461bcd60e51b81526020600482015260086024820152674f6e6c7920454f4160c01b604482015260640161056e565b60405163a9059cbb60e01b8152336004820152602481018290526001600160a01b0383169063a9059cbb906044016020604051808303816000875af1158015610d1b573d6000803e3d6000fd5b505050506040513d601f19601f82011682018060405250810190610d3f9190612285565b505050565b6040516370a0823160e01b81526001600160a01b038216600482015260009081908190819081908190819073adcb2f358eae6492f61a5f87eb8893d09391d160906370a0823190602401602060405180830381865afa158015610dab573d6000803e3d6000fd5b505050506040513d601f19601f82011682018060405250810190610dcf91906124d0565b6040516370a0823160e01b81526001600160a01b038a16600482015290975073c003d79b8a489703b1753711e3ae9ffdfc8d1a82906370a0823190602401602060405180830381865afa158015610e2a573d6000803e3d6000fd5b505050506040513d601f19601f82011682018060405250810190610e4e91906124d0565b6040516370a0823160e01b81526001600160a01b038a1660048201529096507337adb2550b965851593832a6444763eeb3e1d1ec906370a0823190602401602060405180830381865afa158015610ea9573d6000803e3d6000fd5b505050506040513d601f19601f82011682018060405250810190610ecd91906124d0565b6040516370a0823160e01b815230600482015290955073adcb2f358eae6492f61a5f87eb8893d09391d160906370a0823190602401602060405180830381865afa158015610f1f573d6000803e3d6000fd5b505050506040513d601f19601f82011682018060405250810190610f4391906124d0565b6040516370a0823160e01b815230600482015290945073c003d79b8a489703b1753711e3ae9ffdfc8d1a82906370a0823190602401602060405180830381865afa158015610f95573d6000803e3d6000fd5b505050506040513d601f19601f82011682018060405250810190610fb991906124d0565b6040516370a0823160e01b81523060048201529093507337adb2550b965851593832a6444763eeb3e1d1ec906370a0823190602401602060405180830381865afa15801561100b573d6000803e3d6000fd5b505050506040513d601f19601f8201168201806040525081019061102f91906124d0565b604051636eb1769f60e11b81526001600160a01b038a16600482015230602482015290925073adcb2f358eae6492f61a5f87eb8893d09391d1609063dd62ed3e90604401602060405180830381865afa158015611090573d6000803e3d6000fd5b505050506040513d601f19601f820116820180604052508101906110b491906124d0565b9050919395979092949650565b600083116111115760405162461bcd60e51b815260206004820152601760248201527f5745544820616d6f756e74206d757374206265203e2030000000000000000000604482015260640161056e565b600082116111615760405162461bcd60e51b815260206004820152601b60248201527f4d696e2050555252206f7574707574206d757374206265203e20300000000000604482015260640161056e565b600081116111b15760405162461bcd60e51b815260206004820152601b60248201527f4d696e204846554e206f7574707574206d757374206265203e20300000000000604482015260640161056e565b60408051606080825260109082018190526f496e70757420706172616d657465727360801b60808301526001602083015260a08284018190528201526f105b1b081a5b9c1d5d1cc81d985b1a5960821b60c082015290516000805160206126668339815191529181900360e00190a1505050565b6040516370a0823160e01b81526001600160a01b038316600482015273adcb2f358eae6492f61a5f87eb8893d09391d1609060009082906370a0823190602401602060405180830381865afa158015611282573d6000803e3d6000fd5b505050506040513d601f19601f820116820180604052508101906112a691906124d0565b604080516060808252601190820152705573657220574554482062616c616e636560781b6080820152602081018390529081018590529091506000805160206126868339815191529060a00160405180910390a18281101561134a5760405162461bcd60e51b815260206004820152601960248201527f496e73756666696369656e7420574554482062616c616e636500000000000000604482015260640161056e565b604051636eb1769f60e11b81526001600160a01b0385811660048301523060248301526000919084169063dd62ed3e90604401602060405180830381865afa15801561139a573d6000803e3d6000fd5b505050506040513d601f19601f820116820180604052508101906113be91906124d0565b604080516060808252600e908201526d5745544820616c6c6f77616e636560901b6080820152602081018390529081018690529091506000805160206126868339815191529060a00160405180910390a18381101561145f5760405162461bcd60e51b815260206004820152601b60248201527f496e73756666696369656e74205745544820616c6c6f77616e63650000000000604482015260640161056e565b604080516060808252601a908201527f574554482062616c616e636520616e6420616c6c6f77616e636500000000000060808201526001602082015260a0818301819052600f908201526e0a6eaccccd2c6d2cadce840ae8aa89608b1b60c082015290516000805160206126668339815191529181900360e00190a15050505050565b60408051818152600f818301526e2b199039bbb0b8103a37b5b2b724b760891b60608201526001600160a01b038716602082015290516000916000805160206126a6833981519152919081900360800190a1604080518181526010818301526f158cc81cddd85c081d1bdad95b93dd5d60821b60608201526001600160a01b038716602082015290516000805160206126a68339815191529181900360800190a1604080516060808252600f908201526e5633207377617020616d6f756e747360881b6080820152602081018690529081018490526000805160206126868339815191529060a00160405180910390a1604080516060808252600b908201526a563320737761702066656560a81b608082015262ffffff8416602082015260008183015290516000805160206126868339815191529181900360a00190a16040516370a0823160e01b815230600482015273d81f56576b1ff2f3ef18e9cc71adaa42516fd9909087906000906001600160a01b038316906370a0823190602401602060405180830381865afa15801561167f573d6000803e3d6000fd5b505050506040513d601f19601f820116820180604052508101906116a391906124d0565b905060008051602061268683398151915281600060405161170f92919060608082526022908201527f436f6e74726163742062616c616e6365206265666f726520563320617070726f608082015261766560f01b60a08201526020810192909252604082015260c00190565b60405180910390a1604080516060808252601390820152722b199030b8383937bb34b733903937baba32b960691b60808201526020810189905260008183015290516000805160206126868339815191529181900360a00190a160405163095ea7b360e01b815273d81f56576b1ff2f3ef18e9cc71adaa42516fd9906004820152602481018890526000906001600160a01b0384169063095ea7b3906044016020604051808303816000875af11580156117cd573d6000803e3d6000fd5b505050506040513d601f19601f820116820180604052508101906117f19190612285565b90506000805160206126c68339815191528160405161183f9190604080825260129082015271563320617070726f7665207375636365737360701b6060820152901515602082015260800190565b60405180910390a1806118885760405162461bcd60e51b8152602060048201526011602482015270158cc8185c1c1c9bdd994819985a5b1959607a1b604482015260640161056e565b60006118964261012c6124e9565b905060008051602061268683398151915281426040516118e992919060608082526010908201526f5633207377617020646561646c696e6560801b60808201526020810192909252604082015260a00190565b60405180910390a160408051610100810182526001600160a01b03808e1682528c16602082015262ffffff89168183015230606082018190526080820184905260a082018c905260c082018b9052600060e0830152915190916000805160206126a6833981519152916119959190604080825260139082015272158cc81c185c985b5cc81c9958da5c1a595b9d606a1b60608201526001600160a01b0391909116602082015260800190565b60405180910390a16040805163414bf38960e01b815282516001600160a01b0390811660048301526020840151811660248301529183015162ffffff1660448201526060830151821660648201526080830151608482015260a083015160a482015260c083015160c482015260e0830151821660e48201529087169063414bf38990610104016020604051808303816000875af1158015611a3a573d6000803e3d6000fd5b505050506040513d601f19601f82011682018060405250810190611a5e91906124d0565b60408051606080825260119082015270158cc81cddd85c0818dbdb5c1b195d1959607a1b6080820152602081018d90529081018290529097506000805160206126868339815191529060a00160405180910390a1604080516060808252600e908201526d158cc81c9bdd5d195c8818d85b1b60921b6080820152600160208201529081018890526000805160206126e68339815191529060a00160405180910390a150505050505095945050505050565b60408051818152600f818301526e2b191039bbb0b8103a37b5b2b724b760891b60608201526001600160a01b038616602082015290516000916000805160206126a6833981519152919081900360800190a1604080518181526010818301526f158c881cddd85c081d1bdad95b93dd5d60821b60608201526001600160a01b038616602082015290516000805160206126a68339815191529181900360800190a1604080516060808252600f908201526e5632207377617020616d6f756e747360881b6080820152602081018590529081018390526000805160206126868339815191529060a00160405180910390a16040516370a0823160e01b81523060048201527385aa63eb2ab9baaa74ead7e7f82a571d749018539086906000906001600160a01b038316906370a0823190602401602060405180830381865afa158015611c5e573d6000803e3d6000fd5b505050506040513d601f19601f82011682018060405250810190611c8291906124d0565b9050600080516020612686833981519152816000604051611cee92919060608082526022908201527f436f6e74726163742062616c616e6365206265666f726520563220617070726f608082015261766560f01b60a08201526020810192909252604082015260c00190565b60405180910390a1604080516060808252601390820152722b191030b8383937bb34b733903937baba32b960691b60808201526020810188905260008183015290516000805160206126868339815191529181900360a00190a160405163095ea7b360e01b81527385aa63eb2ab9baaa74ead7e7f82a571d749018536004820152602481018790526000906001600160a01b0384169063095ea7b3906044016020604051808303816000875af1158015611dac573d6000803e3d6000fd5b505050506040513d601f19601f82011682018060405250810190611dd09190612285565b90506000805160206126c683398151915281604051611e1e9190604080825260129082015271563220617070726f7665207375636365737360701b6060820152901515602082015260800190565b60405180910390a180611e675760405162461bcd60e51b8152602060048201526011602482015270158c88185c1c1c9bdd994819985a5b1959607a1b604482015260640161056e565b6040805160028082526060820183526000926020830190803683370190505090508981600081518110611e9c57611e9c612520565b60200260200101906001600160a01b031690816001600160a01b0316815250508881600181518110611ed057611ed0612520565b60200260200101906001600160a01b031690816001600160a01b0316815250506000805160206126a683398151915281600081518110611f1257611f12612520565b6020026020010151604051611f5791906040808252600a9082015269563220706174685b305d60b01b60608201526001600160a01b0391909116602082015260800190565b60405180910390a16000805160206126a683398151915281600181518110611f8157611f81612520565b6020026020010151604051611fc691906040808252600a9082015269563220706174685b315d60b01b60608201526001600160a01b0391909116602082015260800190565b60405180910390a16000611fdc4261012c6124e9565b9050600080516020612686833981519152814260405161202f92919060608082526010908201526f5632207377617020646561646c696e6560801b60808201526020810192909252604082015260a00190565b60405180910390a16040516338ed173960e01b81526000906001600160a01b038816906338ed17399061206e908d908d90889030908990600401612536565b6000604051808303816000875af115801561208d573d6000803e3d6000fd5b505050506040513d6000823e601f3d908101601f191682016040526120b591908101906125a7565b9050806001815181106120ca576120ca612520565b60200260200101519750600080516020612686833981519152816000815181106120f6576120f6612520565b60200260200101518260018151811061211157612111612520565b602002602001015160405161215a929190606080825260119082015270158c881cddd85c0818dbdb5c1b195d1959607a1b60808201526020810192909252604082015260a00190565b60405180910390a1604080516060808252600e908201526d158c881c9bdd5d195c8818d85b1b60921b6080820152600160208201529081018990526000805160206126e68339815191529060a00160405180910390a150505050505050949350505050565b80151581146121cd57600080fd5b50565b600080600080600060a086880312156121e857600080fd5b85359450602086013593506040860135925060608601359150608086013561220f816121bf565b809150509295509295909350565b80356001600160a01b038116811461223457600080fd5b919050565b6000806040838503121561224c57600080fd5b6122558361221d565b946020939093013593505050565b60006020828403121561227557600080fd5b61227e8261221d565b9392505050565b60006020828403121561229757600080fd5b815161227e816121bf565b6060815260006122d3606083016011815270119a5c9cdd081cddd85c081bdd5d1c1d5d607a1b602082015260400190565b83151560208401528281036040840152612312816018815277125b9cdd59999a58da595b9d0814155494881bdd5d1c1d5d60421b602082015260400190565b949350505050565b602081526000612352602083016018815277125b9cdd59999a58da595b9d0814155494881bdd5d1c1d5d60421b602082015260400190565b92915050565b606081526000612389606083016011815270119a5c9cdd081cddd85c081bdd5d1c1d5d607a1b602082015260400190565b921515602083810191909152828403604093840152601684527514155494881bdd5d1c1d5d081cdd59999a58da595b9d60521b90840152500190565b6060815260006123f160608301600c81526b119a5b985b081bdd5d1c1d5d60a21b602082015260400190565b83151560208401528281036040840152612312816018815277125b9cdd59999a58da595b9d0812119553881bdd5d1c1d5d60421b602082015260400190565b602081526000612352602083016018815277125b9cdd59999a58da595b9d0812119553881bdd5d1c1d5d60421b602082015260400190565b60608152600061249460608301600c81526b119a5b985b081bdd5d1c1d5d60a21b602082015260400190565b921515602083810191909152828403604093840152601684527512119553881bdd5d1c1d5d081cdd59999a58da595b9d60521b90840152500190565b6000602082840312156124e257600080fd5b5051919050565b8082018082111561235257634e487b7160e01b600052601160045260246000fd5b634e487b7160e01b600052604160045260246000fd5b634e487b7160e01b600052603260045260246000fd5b600060a082018783526020878185015260a0604085015281875180845260c086019150828901935060005b818110156125865784516001600160a01b031683529383019391830191600101612561565b50506001600160a01b03969096166060850152505050608001529392505050565b600060208083850312156125ba57600080fd5b825167ffffffffffffffff808211156125d257600080fd5b818501915085601f8301126125e657600080fd5b8151818111156125f8576125f861250a565b8060051b604051601f19603f8301168101818110858211171561261d5761261d61250a565b60405291825284820192508381018501918883111561263b57600080fd5b938501935b8285101561265957845184529385019392850192612640565b9897505050505050505056fec63f662c51e5b66004a8d3c98740c17ec51ee6cd9d74ef468e3acb8c92ace7ba1e12a21fdf194d5d13bc6106efc72ff0f33ff3272045d478355d95e3e1aa3ff6b3f7d6c63a62ab0e6ae5263ef1deb9c5a64f4689288c380db949c116314a5540c0971de8d615669ce336a81fbc0043ac15834948dd39e24e22f73d3304db2e152bb8cc848e12c5fb854b1c61ee3705290cbf111d416404bd8675855fcd8d419da2646970667358221220513182d1d364538504b8eba528efe4639463045e06a961ab27e5e1fb60492c7864736f6c63430008130033",
  "linkReferences": {},
  "deployedLinkReferences": {}
}